:020000040000FA
:10000000B201B72898181812181664008C1E05281B
:100010001A080314B228A501A400B3172730A300BF
:1000200010301E200330A300E8301E20A3016430EE
:100030001E20A3010A301E2024082928A20025081A
:10004000A1002408A00096202008031DB313B31BB1
:100050000800303E64000C1E2A2899000314B228C0
:10006000A7000911091009108316091109100910B8
:10007000880183122708B21858283A30A100FC30B2
:1000800082203330A6006B201030A100683082201F
:100090006B20643081206B20383057200C30572083
:1000A0000130572006305720B21427085828321440
:1000B000A600321C66280910033C031C6B286B2029
:1000C0000730A100D0308220031408003214FE3C17
:1000D0000319B228091409152608880032100911DD
:1000E0003230812003140800A301A200FF30A207D0
:1000F000031CA307031CB2280330A100DF308220B9
:100100007628A101E83EA000A109FC30031C8B2841
:10011000A00703188828A0076400A10F88282018CA
:100120009128A01C9528000095280800A501A4018D
:100130001030A600210DA40DA50D2208A40223084D
:10014000031C230FA5020318AC282208A4072308C8
:100150000318230FA5070310A00DA10DA60B9A28C5
:100160002008B22883130313831264000800831647
:10017000193099002430980083129030980083162B
:1001800007309F00643083128A017420C00105305B
:10019000BE00FE308A01302001308A01302042301A
:1001A0008A012A2069308A012A2072308A012A2095
:1001B00069308A012A206E308A012A2063308A0140
:1001C0002A2069308A012A2020308A012A206F30B3
:1001D0008A012A2079308A012A2075308A012A2052
:1001E0006E308A012A2063308A012A2075308A0104
:1001F0002A2020308A012A2035308A012A20203006
:100200008A012A2068308A012A2061308A012A2046
:1002100072308A012A2066308A012A206C308A01D5
:100220002A2069308A012A2020308A012A2062305F
:100230008A012A2069308A012A2072308A012A2004
:1002400020308A012A206B308A012A2065308A01F9
:100250002A206C308A012A2069308A012A206D30D8
:100260008A012A2065308A012A2020308A012A202A
:1002700067308A012A2069308A012A2072308A0177
:100280002A2073308A012A2069308A012A206E30A0
:100290008A012A200D308A012A200A308A012A2068
:1002A0008A010220B9002A308A012A208A0102200C
:1002B000BA002A308A012A208A010220BB002A3093
:1002C0008A012A208A010220BC002A308A012A20C1
:1002D0008A010220BD002A308A012A200D308A01BD
:1002E0002A200A308A012A204B308A012A206530D0
:1002F0008A012A206C308A012A2069308A012A204A
:100300006D308A012A2065308A012A2020308A0136
:100310002A2067308A012A2069308A012A20723017
:100320008A012A2069308A012A206C308A012A2019
:1003300064308A012A2069308A012A2020308A010B
:100340002A2069308A012A206B308A012A206930EC
:100350008A012A206E308A012A2063308A012A20ED
:1003600069308A012A2020308A012A206F308A01D0
:100370002A2079308A012A2075308A012A206E309D
:100380008A012A2063308A012A2075308A012A20B6
:1003900020308A012A2074308A012A2061308A01A3
:1003A0002A2068308A012A206D308A012A2069308B
:1003B0008A012A206E308A012A2069308A012A2087
:1003C0006E308A012A2069308A012A2020308A0171
:1003D0002A2067308A012A2069308A012A20723057
:1003E0008A012A2073308A012A2069308A012A2052
:1003F0006E308A012A200D308A012A200A308A01B3
:100400002A2035308A012A2020308A012A2074309F
:100410008A012A2061308A012A2068308A012A2034
:100420006D308A012A2069308A012A206E308A01C3
:100430002A2020308A012A2068308A012A2061304F
:100440008A012A206B308A012A206B308A012A20F7
:1004500069308A012A206E308A012A2069308A0197
:100460002A207A308A012A2020308A012A207630F8
:100470008A012A2061308A012A2072308A012A20CA
:100480000D308A012A200A308A012A20640040089F
:10049000053C8A110A12031D722AFE308A0130209F
:1004A000C0308A01302054308A01302065308A0102
:1004B000302062308A01302072308A013020693069
:1004C0008A0130206B308A0130206C308A01302064
:1004D00065308A01302072308A0130200530BE003C
:1004E0008A01C9288A010220BF0064003F0839023E
:1004F0008A110A12031D882AFE308A0130208030BA
:100500008A01302039088A013020C00A0130B80041
:1005100064003F083A028A110A12031D9B2AFE302A
:100520008A01302081308A0130203A088A01302047
:10053000C00A0130B80064003F083B028A110A1269
:10054000031DAE2AFE308A01302082308A0130201D
:100550003B088A013020C00A0130B80064003F081F
:100560003C028A110A12031DC12AFE308A01302082
:1005700083308A0130203C088A013020C00A0130D3
:10058000B80064003F083D028A110A12031DD42AF4
:10059000FE308A01302084308A0130203D088A01F3
:1005A0003020C00A0130B80064003808013C8A11CC
:1005B0000A12031DDE2AB8018A01462ABE033E083C
:1005C0008A010B2020308A012A2068308A012A20E3
:1005D00061308A012A206B308A012A206B308A011F
:1005E0002A2069308A012A206E308A012A20693047
:1005F0008A012A207A308A012A2020308A012A2082
:100600006B308A012A2061308A012A206C308A01ED
:100610002A2064308A012A2069308A012A200D307C
:100620008A012A200A308A012A20640001303E0211
:100630008A110A12031C1E2B8A01462AFE308A01E7
:100640003020C0308A0130205A308A0130204930B1
:100650008A01302052308A0130204C308A0130200B
:0E06600041308A0130200530BE008A01C928D1
:02400E00753FFC
:00000001FF
